{
  "_format": "hh-sol-artifact-1",
  "contractName": "Raffle",
  "sourceName": "contracts/raffle.sol",
  "abi": [
    {
      "inputs": [
        {
          "internalType": "address",
          "name": "vrfCoordinatorV2",
          "type": "address"
        },
        {
          "internalType": "uint256",
          "name": "entranceFee",
          "type": "uint256"
        },
        {
          "internalType": "bytes32",
          "name": "gasLane",
          "type": "bytes32"
        },
        {
          "internalType": "uint64",
          "name": "subscriptionId",
          "type": "uint64"
        },
        {
          "internalType": "uint32",
          "name": "callbackGasLimit",
          "type": "uint32"
        },
        {
          "internalType": "uint256",
          "name": "interval",
          "type": "uint256"
        }
      ],
      "stateMutability": "nonpayable",
      "type": "constructor"
    },
    {
      "inputs": [
        {
          "internalType": "address",
          "name": "have",
          "type": "address"
        },
        {
          "internalType": "address",
          "name": "want",
          "type": "address"
        }
      ],
      "name": "OnlyCoordinatorCanFulfill",
      "type": "error"
    },
    {
      "inputs": [],
      "name": "Raffle__NotEnoughETHEntered",
      "type": "error"
    },
    {
      "inputs": [],
      "name": "Raffle__NotOpen",
      "type": "error"
    },
    {
      "inputs": [],
      "name": "Raffle__TransferFailed",
      "type": "error"
    },
    {
      "inputs": [
        {
          "internalType": "uint256",
          "name": "currentBalance",
          "type": "uint256"
        },
        {
          "internalType": "uint256",
          "name": "numPlayers",
          "type": "uint256"
        },
        {
          "internalType": "uint256",
          "name": "raffelState",
          "type": "uint256"
        }
      ],
      "name": "Raffle__UpkeepNotNeeded",
      "type": "error"
    },
    {
      "anonymous": false,
      "inputs": [
        {
          "indexed": true,
          "internalType": "address",
          "name": "player",
          "type": "address"
        }
      ],
      "name": "RaffleEnter",
      "type": "event"
    },
    {
      "anonymous": false,
      "inputs": [
        {
          "indexed": true,
          "internalType": "uint256",
          "name": "requestId",
          "type": "uint256"
        }
      ],
      "name": "RequestedRaffleWinner",
      "type": "event"
    },
    {
      "anonymous": false,
      "inputs": [
        {
          "indexed": true,
          "internalType": "address",
          "name": "winner",
          "type": "address"
        }
      ],
      "name": "WinnerPicked",
      "type": "event"
    },
    {
      "inputs": [
        {
          "internalType": "bytes",
          "name": "",
          "type": "bytes"
        }
      ],
      "name": "checkUpkeep",
      "outputs": [
        {
          "internalType": "bool",
          "name": "upkeepNeeded",
          "type": "bool"
        },
        {
          "internalType": "bytes",
          "name": "",
          "type": "bytes"
        }
      ],
      "stateMutability": "nonpayable",
      "type": "function"
    },
    {
      "inputs": [],
      "name": "enterRaffle",
      "outputs": [],
      "stateMutability": "payable",
      "type": "function"
    },
    {
      "inputs": [],
      "name": "getEntranceFee",
      "outputs": [
        {
          "internalType": "uint256",
          "name": "",
          "type": "uint256"
        }
      ],
      "stateMutability": "view",
      "type": "function"
    },
    {
      "inputs": [],
      "name": "getLatestTimeStamp",
      "outputs": [
        {
          "internalType": "uint256",
          "name": "",
          "type": "uint256"
        }
      ],
      "stateMutability": "view",
      "type": "function"
    },
    {
      "inputs": [],
      "name": "getNumWords",
      "outputs": [
        {
          "internalType": "uint256",
          "name": "",
          "type": "uint256"
        }
      ],
      "stateMutability": "pure",
      "type": "function"
    },
    {
      "inputs": [],
      "name": "getNumberOfPlayers",
      "outputs": [
        {
          "internalType": "uint256",
          "name": "",
          "type": "uint256"
        }
      ],
      "stateMutability": "view",
      "type": "function"
    },
    {
      "inputs": [
        {
          "internalType": "uint256",
          "name": "index",
          "type": "uint256"
        }
      ],
      "name": "getPlayer",
      "outputs": [
        {
          "internalType": "address",
          "name": "",
          "type": "address"
        }
      ],
      "stateMutability": "view",
      "type": "function"
    },
    {
      "inputs": [],
      "name": "getRaffleState",
      "outputs": [
        {
          "internalType": "enum Raffle.RaffleState",
          "name": "",
          "type": "uint8"
        }
      ],
      "stateMutability": "view",
      "type": "function"
    },
    {
      "inputs": [],
      "name": "getRecentWinner",
      "outputs": [
        {
          "internalType": "address",
          "name": "",
          "type": "address"
        }
      ],
      "stateMutability": "view",
      "type": "function"
    },
    {
      "inputs": [],
      "name": "getRequestConfirmations",
      "outputs": [
        {
          "internalType": "uint256",
          "name": "",
          "type": "uint256"
        }
      ],
      "stateMutability": "pure",
      "type": "function"
    },
    {
      "inputs": [
        {
          "internalType": "bytes",
          "name": "",
          "type": "bytes"
        }
      ],
      "name": "performUpkeep",
      "outputs": [],
      "stateMutability": "nonpayable",
      "type": "function"
    },
    {
      "inputs": [
        {
          "internalType": "uint256",
          "name": "requestId",
          "type": "uint256"
        },
        {
          "internalType": "uint256[]",
          "name": "randomWords",
          "type": "uint256[]"
        }
      ],
      "name": "rawFulfillRandomWords",
      "outputs": [],
      "stateMutability": "nonpayable",
      "type": "function"
    }
  ],
  "bytecode": "0x6101606040523480156200001257600080fd5b506040516200177638038062001776833981810160405281019062000038919062000294565b858073ffffffffffffffffffffffffffffffffffffffff1660808173ffffffffffffffffffffffffffffffffffffffff1681525050508460a081815250508573ffffffffffffffffffffffffffffffffffffffff1660c08173ffffffffffffffffffffffffffffffffffffffff16815250508360e081815250508267ffffffffffffffff166101008167ffffffffffffffff16815250508163ffffffff166101208163ffffffff16815250506000600160146101000a81548160ff021916908360018111156200010d576200010c62000330565b5b0217905550426002819055508061014081815250505050505050506200035f565b600080fd5b600073ffffffffffffffffffffffffffffffffffffffff82169050919050565b6000620001608262000133565b9050919050565b620001728162000153565b81146200017e57600080fd5b50565b600081519050620001928162000167565b92915050565b6000819050919050565b620001ad8162000198565b8114620001b957600080fd5b50565b600081519050620001cd81620001a2565b92915050565b6000819050919050565b620001e881620001d3565b8114620001f457600080fd5b50565b6000815190506200020881620001dd565b92915050565b600067ffffffffffffffff82169050919050565b6200022d816200020e565b81146200023957600080fd5b50565b6000815190506200024d8162000222565b92915050565b600063ffffffff82169050919050565b6200026e8162000253565b81146200027a57600080fd5b50565b6000815190506200028e8162000263565b92915050565b60008060008060008060c08789031215620002b457620002b36200012e565b5b6000620002c489828a0162000181565b9650506020620002d789828a01620001bc565b9550506040620002ea89828a01620001f7565b9450506060620002fd89828a016200023c565b93505060806200031089828a016200027d565b92505060a06200032389828a01620001bc565b9150509295509295509295565b7f4e487b7100000000000000000000000000000000000000000000000000000000600052602160045260246000fd5b60805160a05160c05160e0516101005161012051610140516113ae620003c860003960006107a10152600061065f0152600061063c0152600061061b015260006105df0152600081816102b401526103b10152600081816102f1015261034501526113ae6000f3fe6080604052600436106100a75760003560e01c8063473f1ddc11610064578063473f1ddc1461018957806353a2c19a146101b45780635f1b0fd8146101df5780636e04ff0d1461020a578063e55ae4e814610248578063fd6673f514610285576100a7565b806309bc33a7146100ac578063115cbaf5146100d75780631fe543e3146101025780632cfcc5391461012b578063320229eb146101355780634585e33b14610160575b600080fd5b3480156100b857600080fd5b506100c16102b0565b6040516100ce9190610b38565b60405180910390f35b3480156100e357600080fd5b506100ec6102d8565b6040516100f99190610bca565b60405180910390f35b34801561010e57600080fd5b5061012960048036038101906101249190610d7e565b6102ef565b005b6101336103af565b005b34801561014157600080fd5b5061014a61051e565b6040516101579190610b38565b60405180910390f35b34801561016c57600080fd5b5061018760048036038101906101829190610e35565b610528565b005b34801561019557600080fd5b5061019e610718565b6040516101ab9190610ec3565b60405180910390f35b3480156101c057600080fd5b506101c9610742565b6040516101d69190610b38565b60405180910390f35b3480156101eb57600080fd5b506101f4610751565b6040516102019190610b38565b60405180910390f35b34801561021657600080fd5b50610231600480360381019061022c9190610f93565b61075e565b60405161023f929190611076565b60405180910390f35b34801561025457600080fd5b5061026f600480360381019061026a91906110a6565b61080b565b60405161027c9190610ec3565b60405180910390f35b34801561029157600080fd5b5061029a61083b565b6040516102a79190610b38565b60405180910390f35b60007f0000000000000000000000000000000000000000000000000000000000000000905090565b6000600160149054906101000a900460ff16905090565b7f000000000000000000000000000000000000000000000000000000000000000073ffffffffffffffffffffffffffffffffffffffff163373ffffffffffffffffffffffffffffffffffffffff16146103a157337f00000000000000000000000000000000000000000000000000000000000000006040517f1cf993f40000000000000000000000000000000000000000000000000000000081526004016103989291906110d3565b60405180910390fd5b6103ab8282610847565b5050565b7f0000000000000000000000000000000000000000000000000000000000000000341115610409576040517fbd4e069500000000000000000000000000000000000000000000000000000000815260040160405180910390fd5b6000600181111561041d5761041c610b53565b5b600160149054906101000a900460ff16600181111561043f5761043e610b53565b5b14610476576040517f1425571c00000000000000000000000000000000000000000000000000000000815260040160405180910390fd5b6000339080600181540180825580915050600190039060005260206000200160009091909190916101000a81548173ffffffffffffffffffffffffffffffffffffffff021916908373ffffffffffffffffffffffffffffffffffffffff1602179055503373ffffffffffffffffffffffffffffffffffffffff167f0805e1d667bddb8a95f0f09880cf94f403fb596ce79928d9f29b74203ba284d460405160405180910390a2565b6000600254905090565b60006105426040518060200160405280600081525061075e565b509050806105b15747600080549050600160149054906101000a900460ff16600181111561057357610572610b53565b5b6040517f584327aa0000000000000000000000000000000000000000000000000000000081526004016105a8939291906110fc565b60405180910390fd5b60018060146101000a81548160ff021916908360018111156105d6576105d5610b53565b5b021790555060007f000000000000000000000000000000000000000000000000000000000000000073ffffffffffffffffffffffffffffffffffffffff16635d3b1d307f00000000000000000000000000000000000000000000000000000000000000007f000000000000000000000000000000000000000000000000000000000000000060037f000000000000000000000000000000000000000000000000000000000000000060016040518663ffffffff1660e01b81526004016106a09594939291906111ab565b6020604051808303816000875af11580156106bf573d6000803e3d6000fd5b505050506040513d601f19601f820116820180604052508101906106e39190611213565b9050807fcd6e45c8998311cab7e9d4385596cac867e20a0587194b954fa3a731c93ce78b60405160405180910390a250505050565b6000600160009054906101000a900473ffffffffffffffffffffffffffffffffffffffff16905090565b6000600163ffffffff16905090565b6000600361ffff16905090565b600060606000600160149054906101000a900460ff16600181111561078657610785610b53565b5b6000600181111561079a57610799610b53565b5b14905060007f0000000000000000000000000000000000000000000000000000000000000000600254426107ce919061126f565b119050600080600080549050119050600080471190508380156107ee5750825b80156107f75750815b80156108005750805b955050505050915091565b60008082815481106108205761081f6112a3565b5b9060005260206000200160009054906101000a905050919050565b60008080549050905090565b6000808054905082600081518110610862576108616112a3565b5b60200260200101516108749190611301565b9050600080828154811061088b5761088a6112a3565b5b9060005260206000200160009054906101000a900473ffffffffffffffffffffffffffffffffffffffff16905080600160006101000a81548173ffffffffffffffffffffffffffffffffffffffff021916908373ffffffffffffffffffffffffffffffffffffffff1602179055506000600160146101000a81548160ff0219169083600181111561091f5761091e610b53565b5b0217905550600067ffffffffffffffff81111561093f5761093e610c3b565b5b60405190808252806020026020018201604052801561096d5781602001602082028036833780820191505090505b5060009080519060200190610983929190610a78565b504260028190555060008173ffffffffffffffffffffffffffffffffffffffff16476040516109b190611363565b60006040518083038185875af1925050503d80600081146109ee576040519150601f19603f3d011682016040523d82523d6000602084013e6109f3565b606091505b5050905080610a2e576040517fa1d04b3900000000000000000000000000000000000000000000000000000000815260040160405180910390fd5b8173ffffffffffffffffffffffffffffffffffffffff167f5b690ec4a06fe979403046eaeea5b3ce38524683c3001f662c8b5a829632f7df60405160405180910390a25050505050565b828054828255906000526020600020908101928215610af1579160200282015b82811115610af05782518260006101000a81548173ffffffffffffffffffffffffffffffffffffffff021916908373ffffffffffffffffffffffffffffffffffffffff16021790555091602001919060010190610a98565b5b509050610afe9190610b02565b5090565b5b80821115610b1b576000816000905550600101610b03565b5090565b6000819050919050565b610b3281610b1f565b82525050565b6000602082019050610b4d6000830184610b29565b92915050565b7f4e487b7100000000000000000000000000000000000000000000000000000000600052602160045260246000fd5b60028110610b9357610b92610b53565b5b50565b6000819050610ba482610b82565b919050565b6000610bb482610b96565b9050919050565b610bc481610ba9565b82525050565b6000602082019050610bdf6000830184610bbb565b92915050565b6000604051905090565b600080fd5b600080fd5b610c0281610b1f565b8114610c0d57600080fd5b50565b600081359050610c1f81610bf9565b92915050565b600080fd5b6000601f19601f8301169050919050565b7f4e487b7100000000000000000000000000000000000000000000000000000000600052604160045260246000fd5b610c7382610c2a565b810181811067ffffffffffffffff82111715610c9257610c91610c3b565b5b80604052505050565b6000610ca5610be5565b9050610cb18282610c6a565b919050565b600067ffffffffffffffff821115610cd157610cd0610c3b565b5b602082029050602081019050919050565b600080fd5b6000610cfa610cf584610cb6565b610c9b565b90508083825260208201905060208402830185811115610d1d57610d1c610ce2565b5b835b81811015610d465780610d328882610c10565b845260208401935050602081019050610d1f565b5050509392505050565b600082601f830112610d6557610d64610c25565b5b8135610d75848260208601610ce7565b91505092915050565b60008060408385031215610d9557610d94610bef565b5b6000610da385828601610c10565b925050602083013567ffffffffffffffff811115610dc457610dc3610bf4565b5b610dd085828601610d50565b9150509250929050565b600080fd5b60008083601f840112610df557610df4610c25565b5b8235905067ffffffffffffffff811115610e1257610e11610dda565b5b602083019150836001820283011115610e2e57610e2d610ce2565b5b9250929050565b60008060208385031215610e4c57610e4b610bef565b5b600083013567ffffffffffffffff811115610e6a57610e69610bf4565b5b610e7685828601610ddf565b92509250509250929050565b600073ffffffffffffffffffffffffffffffffffffffff82169050919050565b6000610ead82610e82565b9050919050565b610ebd81610ea2565b82525050565b6000602082019050610ed86000830184610eb4565b92915050565b600080fd5b600067ffffffffffffffff821115610efe57610efd610c3b565b5b610f0782610c2a565b9050602081019050919050565b82818337600083830152505050565b6000610f36610f3184610ee3565b610c9b565b905082815260208101848484011115610f5257610f51610ede565b5b610f5d848285610f14565b509392505050565b600082601f830112610f7a57610f79610c25565b5b8135610f8a848260208601610f23565b91505092915050565b600060208284031215610fa957610fa8610bef565b5b600082013567ffffffffffffffff811115610fc757610fc6610bf4565b5b610fd384828501610f65565b91505092915050565b60008115159050919050565b610ff181610fdc565b82525050565b600081519050919050565b600082825260208201905092915050565b60005b83811015611031578082015181840152602081019050611016565b60008484015250505050565b600061104882610ff7565b6110528185611002565b9350611062818560208601611013565b61106b81610c2a565b840191505092915050565b600060408201905061108b6000830185610fe8565b818103602083015261109d818461103d565b90509392505050565b6000602082840312156110bc576110bb610bef565b5b60006110ca84828501610c10565b91505092915050565b60006040820190506110e86000830185610eb4565b6110f56020830184610eb4565b9392505050565b60006060820190506111116000830186610b29565b61111e6020830185610b29565b61112b6040830184610b29565b949350505050565b6000819050919050565b61114681611133565b82525050565b600067ffffffffffffffff82169050919050565b6111698161114c565b82525050565b600061ffff82169050919050565b6111868161116f565b82525050565b600063ffffffff82169050919050565b6111a58161118c565b82525050565b600060a0820190506111c0600083018861113d565b6111cd6020830187611160565b6111da604083018661117d565b6111e7606083018561119c565b6111f4608083018461119c565b9695505050505050565b60008151905061120d81610bf9565b92915050565b60006020828403121561122957611228610bef565b5b6000611237848285016111fe565b91505092915050565b7f4e487b7100000000000000000000000000000000000000000000000000000000600052601160045260246000fd5b600061127a82610b1f565b915061128583610b1f565b925082820390508181111561129d5761129c611240565b5b92915050565b7f4e487b7100000000000000000000000000000000000000000000000000000000600052603260045260246000fd5b7f4e487b7100000000000000000000000000000000000000000000000000000000600052601260045260246000fd5b600061130c82610b1f565b915061131783610b1f565b925082611327576113266112d2565b5b828206905092915050565b600081905092915050565b50565b600061134d600083611332565b91506113588261133d565b600082019050919050565b600061136e82611340565b915081905091905056fea2646970667358221220da612338e8ffecdd6b6f277b1933dda175220c41e50f6200c2a824e5ae372fc564736f6c63430008120033",
  "linkReferences": {},
  "deployedLinkReferences": {}
}