{
  "_format": "hh-sol-artifact-1",
  "contractName": "Raffle",
  "sourceName": "contracts/raffle.sol",
  "abi": [
    {
      "inputs": [
        {
          "internalType": "address",
          "name": "vrfCoordinatorV2",
          "type": "address"
        },
        {
          "internalType": "uint256",
          "name": "entranceFee",
          "type": "uint256"
        },
        {
          "internalType": "bytes32",
          "name": "gasLane",
          "type": "bytes32"
        },
        {
          "internalType": "uint64",
          "name": "subscriptionId",
          "type": "uint64"
        },
        {
          "internalType": "uint32",
          "name": "callbackGasLimit",
          "type": "uint32"
        },
        {
          "internalType": "uint256",
          "name": "interval",
          "type": "uint256"
        }
      ],
      "stateMutability": "nonpayable",
      "type": "constructor"
    },
    {
      "inputs": [
        {
          "internalType": "address",
          "name": "have",
          "type": "address"
        },
        {
          "internalType": "address",
          "name": "want",
          "type": "address"
        }
      ],
      "name": "OnlyCoordinatorCanFulfill",
      "type": "error"
    },
    {
      "inputs": [],
      "name": "Raffle__NotEnoughETHEntered",
      "type": "error"
    },
    {
      "inputs": [],
      "name": "Raffle__NotOpen",
      "type": "error"
    },
    {
      "inputs": [],
      "name": "Raffle__TransferFailed",
      "type": "error"
    },
    {
      "inputs": [
        {
          "internalType": "uint256",
          "name": "currentBalance",
          "type": "uint256"
        },
        {
          "internalType": "uint256",
          "name": "numPlayers",
          "type": "uint256"
        },
        {
          "internalType": "uint256",
          "name": "raffelState",
          "type": "uint256"
        }
      ],
      "name": "Raffle__UpkeepNotNeeded",
      "type": "error"
    },
    {
      "anonymous": false,
      "inputs": [
        {
          "indexed": true,
          "internalType": "address",
          "name": "player",
          "type": "address"
        }
      ],
      "name": "RaffleEnter",
      "type": "event"
    },
    {
      "anonymous": false,
      "inputs": [
        {
          "indexed": true,
          "internalType": "uint256",
          "name": "requestId",
          "type": "uint256"
        }
      ],
      "name": "RequestedRaffleWinner",
      "type": "event"
    },
    {
      "anonymous": false,
      "inputs": [
        {
          "indexed": true,
          "internalType": "address",
          "name": "winner",
          "type": "address"
        }
      ],
      "name": "WinnerPicked",
      "type": "event"
    },
    {
      "inputs": [
        {
          "internalType": "bytes",
          "name": "",
          "type": "bytes"
        }
      ],
      "name": "checkUpkeep",
      "outputs": [
        {
          "internalType": "bool",
          "name": "upkeepNeeded",
          "type": "bool"
        },
        {
          "internalType": "bytes",
          "name": "",
          "type": "bytes"
        }
      ],
      "stateMutability": "nonpayable",
      "type": "function"
    },
    {
      "inputs": [],
      "name": "enterRaffle",
      "outputs": [],
      "stateMutability": "payable",
      "type": "function"
    },
    {
      "inputs": [],
      "name": "getEntranceFee",
      "outputs": [
        {
          "internalType": "uint256",
          "name": "",
          "type": "uint256"
        }
      ],
      "stateMutability": "view",
      "type": "function"
    },
    {
      "inputs": [],
      "name": "getInterval",
      "outputs": [
        {
          "internalType": "uint256",
          "name": "",
          "type": "uint256"
        }
      ],
      "stateMutability": "view",
      "type": "function"
    },
    {
      "inputs": [],
      "name": "getLatestTimeStamp",
      "outputs": [
        {
          "internalType": "uint256",
          "name": "",
          "type": "uint256"
        }
      ],
      "stateMutability": "view",
      "type": "function"
    },
    {
      "inputs": [],
      "name": "getNumWords",
      "outputs": [
        {
          "internalType": "uint256",
          "name": "",
          "type": "uint256"
        }
      ],
      "stateMutability": "pure",
      "type": "function"
    },
    {
      "inputs": [],
      "name": "getNumberOfPlayers",
      "outputs": [
        {
          "internalType": "uint256",
          "name": "",
          "type": "uint256"
        }
      ],
      "stateMutability": "view",
      "type": "function"
    },
    {
      "inputs": [
        {
          "internalType": "uint256",
          "name": "index",
          "type": "uint256"
        }
      ],
      "name": "getPlayer",
      "outputs": [
        {
          "internalType": "address",
          "name": "",
          "type": "address"
        }
      ],
      "stateMutability": "view",
      "type": "function"
    },
    {
      "inputs": [],
      "name": "getRaffleState",
      "outputs": [
        {
          "internalType": "enum Raffle.RaffleState",
          "name": "",
          "type": "uint8"
        }
      ],
      "stateMutability": "view",
      "type": "function"
    },
    {
      "inputs": [],
      "name": "getRecentWinner",
      "outputs": [
        {
          "internalType": "address",
          "name": "",
          "type": "address"
        }
      ],
      "stateMutability": "view",
      "type": "function"
    },
    {
      "inputs": [],
      "name": "getRequestConfirmations",
      "outputs": [
        {
          "internalType": "uint256",
          "name": "",
          "type": "uint256"
        }
      ],
      "stateMutability": "pure",
      "type": "function"
    },
    {
      "inputs": [
        {
          "internalType": "bytes",
          "name": "",
          "type": "bytes"
        }
      ],
      "name": "performUpkeep",
      "outputs": [],
      "stateMutability": "nonpayable",
      "type": "function"
    },
    {
      "inputs": [
        {
          "internalType": "uint256",
          "name": "requestId",
          "type": "uint256"
        },
        {
          "internalType": "uint256[]",
          "name": "randomWords",
          "type": "uint256[]"
        }
      ],
      "name": "rawFulfillRandomWords",
      "outputs": [],
      "stateMutability": "nonpayable",
      "type": "function"
    }
  ],
  "bytecode": "0x6101606040523480156200001257600080fd5b50604051620017ea380380620017ea833981810160405281019062000038919062000293565b858073ffffffffffffffffffffffffffffffffffffffff1660808173ffffffffffffffffffffffffffffffffffffffff1681525050508460a081815250508573ffffffffffffffffffffffffffffffffffffffff1660c08173ffffffffffffffffffffffffffffffffffffffff16815250508360e081815250508267ffffffffffffffff166101008167ffffffffffffffff16815250508163ffffffff166101208163ffffffff168152505060008060146101000a81548160ff021916908360018111156200010c576200010b6200032f565b5b0217905550426001819055508061014081815250505050505050506200035e565b600080fd5b600073ffffffffffffffffffffffffffffffffffffffff82169050919050565b60006200015f8262000132565b9050919050565b620001718162000152565b81146200017d57600080fd5b50565b600081519050620001918162000166565b92915050565b6000819050919050565b620001ac8162000197565b8114620001b857600080fd5b50565b600081519050620001cc81620001a1565b92915050565b6000819050919050565b620001e781620001d2565b8114620001f357600080fd5b50565b6000815190506200020781620001dc565b92915050565b600067ffffffffffffffff82169050919050565b6200022c816200020d565b81146200023857600080fd5b50565b6000815190506200024c8162000221565b92915050565b600063ffffffff82169050919050565b6200026d8162000252565b81146200027957600080fd5b50565b6000815190506200028d8162000262565b92915050565b60008060008060008060c08789031215620002b357620002b26200012d565b5b6000620002c389828a0162000180565b9650506020620002d689828a01620001bb565b9550506040620002e989828a01620001f6565b9450506060620002fc89828a016200023b565b93505060806200030f89828a016200027c565b92505060a06200032289828a01620001bb565b9150509295509295509295565b7f4e487b7100000000000000000000000000000000000000000000000000000000600052602160045260246000fd5b60805160a05160c05160e05161010051610120516101405161141c620003ce600039600081816107e50152610853015260006106a50152600061068201526000610661015260006106250152600081816102fa01526103f6015260008181610336015261038a015261141c6000f3fe6080604052600436106100c25760003560e01c8063473f1ddc1161007f5780636e04ff0d116100595780636e04ff0d1461022557806391ad27b414610263578063e55ae4e81461028e578063fd6673f5146102cb576100c2565b8063473f1ddc146101a457806353a2c19a146101cf5780635f1b0fd8146101fa576100c2565b806309bc33a7146100c7578063115cbaf5146100f25780631fe543e31461011d5780632cfcc53914610146578063320229eb146101505780634585e33b1461017b575b600080fd5b3480156100d357600080fd5b506100dc6102f6565b6040516100e99190610ba6565b60405180910390f35b3480156100fe57600080fd5b5061010761031e565b6040516101149190610c38565b60405180910390f35b34801561012957600080fd5b50610144600480360381019061013f9190610dec565b610334565b005b61014e6103f4565b005b34801561015c57600080fd5b50610165610563565b6040516101729190610ba6565b60405180910390f35b34801561018757600080fd5b506101a2600480360381019061019d9190610ea3565b61056d565b005b3480156101b057600080fd5b506101b961075e565b6040516101c69190610f31565b60405180910390f35b3480156101db57600080fd5b506101e4610787565b6040516101f19190610ba6565b60405180910390f35b34801561020657600080fd5b5061020f610796565b60405161021c9190610ba6565b60405180910390f35b34801561023157600080fd5b5061024c60048036038101906102479190611001565b6107a3565b60405161025a9291906110e4565b60405180910390f35b34801561026f57600080fd5b5061027861084f565b6040516102859190610ba6565b60405180910390f35b34801561029a57600080fd5b506102b560048036038101906102b09190611114565b610877565b6040516102c29190610f31565b60405180910390f35b3480156102d757600080fd5b506102e06108a8565b6040516102ed9190610ba6565b60405180910390f35b60007f0000000000000000000000000000000000000000000000000000000000000000905090565b60008060149054906101000a900460ff16905090565b7f000000000000000000000000000000000000000000000000000000000000000073ffffffffffffffffffffffffffffffffffffffff163373ffffffffffffffffffffffffffffffffffffffff16146103e657337f00000000000000000000000000000000000000000000000000000000000000006040517f1cf993f40000000000000000000000000000000000000000000000000000000081526004016103dd929190611141565b60405180910390fd5b6103f082826108b5565b5050565b7f000000000000000000000000000000000000000000000000000000000000000034101561044e576040517fbd4e069500000000000000000000000000000000000000000000000000000000815260040160405180910390fd5b6000600181111561046257610461610bc1565b5b600060149054906101000a900460ff16600181111561048457610483610bc1565b5b146104bb576040517f1425571c00000000000000000000000000000000000000000000000000000000815260040160405180910390fd5b6002339080600181540180825580915050600190039060005260206000200160009091909190916101000a81548173ffffffffffffffffffffffffffffffffffffffff021916908373ffffffffffffffffffffffffffffffffffffffff1602179055503373ffffffffffffffffffffffffffffffffffffffff167f0805e1d667bddb8a95f0f09880cf94f403fb596ce79928d9f29b74203ba284d460405160405180910390a2565b6000600154905090565b6000610587604051806020016040528060008152506107a3565b509050806105f65747600280549050600060149054906101000a900460ff1660018111156105b8576105b7610bc1565b5b6040517f584327aa0000000000000000000000000000000000000000000000000000000081526004016105ed9392919061116a565b60405180910390fd5b6001600060146101000a81548160ff0219169083600181111561061c5761061b610bc1565b5b021790555060007f000000000000000000000000000000000000000000000000000000000000000073ffffffffffffffffffffffffffffffffffffffff16635d3b1d307f00000000000000000000000000000000000000000000000000000000000000007f000000000000000000000000000000000000000000000000000000000000000060037f000000000000000000000000000000000000000000000000000000000000000060016040518663ffffffff1660e01b81526004016106e6959493929190611219565b6020604051808303816000875af1158015610705573d6000803e3d6000fd5b505050506040513d601f19601f820116820180604052508101906107299190611281565b9050807fcd6e45c8998311cab7e9d4385596cac867e20a0587194b954fa3a731c93ce78b60405160405180910390a250505050565b60008060009054906101000a900473ffffffffffffffffffffffffffffffffffffffff16905090565b6000600163ffffffff16905090565b6000600361ffff16905090565b6000606060008060149054906101000a900460ff1660018111156107ca576107c9610bc1565b5b600060018111156107de576107dd610bc1565b5b14905060007f00000000000000000000000000000000000000000000000000000000000000006001544261081291906112dd565b119050600080600280549050119050600080471190508380156108325750825b801561083b5750815b80156108445750805b955050505050915091565b60007f0000000000000000000000000000000000000000000000000000000000000000905090565b60006002828154811061088d5761088c611311565b5b9060005260206000200160009054906101000a905050919050565b6000600280549050905090565b6000600280549050826000815181106108d1576108d0611311565b5b60200260200101516108e3919061136f565b90506000600282815481106108fb576108fa611311565b5b9060005260206000200160009054906101000a900473ffffffffffffffffffffffffffffffffffffffff169050806000806101000a81548173ffffffffffffffffffffffffffffffffffffffff021916908373ffffffffffffffffffffffffffffffffffffffff16021790555060008060146101000a81548160ff0219169083600181111561098d5761098c610bc1565b5b0217905550600067ffffffffffffffff8111156109ad576109ac610ca9565b5b6040519080825280602002602001820160405280156109db5781602001602082028036833780820191505090505b50600290805190602001906109f1929190610ae6565b504260018190555060008173ffffffffffffffffffffffffffffffffffffffff1647604051610a1f906113d1565b60006040518083038185875af1925050503d8060008114610a5c576040519150601f19603f3d011682016040523d82523d6000602084013e610a61565b606091505b5050905080610a9c576040517fa1d04b3900000000000000000000000000000000000000000000000000000000815260040160405180910390fd5b8173ffffffffffffffffffffffffffffffffffffffff167f5b690ec4a06fe979403046eaeea5b3ce38524683c3001f662c8b5a829632f7df60405160405180910390a25050505050565b828054828255906000526020600020908101928215610b5f579160200282015b82811115610b5e5782518260006101000a81548173ffffffffffffffffffffffffffffffffffffffff021916908373ffffffffffffffffffffffffffffffffffffffff16021790555091602001919060010190610b06565b5b509050610b6c9190610b70565b5090565b5b80821115610b89576000816000905550600101610b71565b5090565b6000819050919050565b610ba081610b8d565b82525050565b6000602082019050610bbb6000830184610b97565b92915050565b7f4e487b7100000000000000000000000000000000000000000000000000000000600052602160045260246000fd5b60028110610c0157610c00610bc1565b5b50565b6000819050610c1282610bf0565b919050565b6000610c2282610c04565b9050919050565b610c3281610c17565b82525050565b6000602082019050610c4d6000830184610c29565b92915050565b6000604051905090565b600080fd5b600080fd5b610c7081610b8d565b8114610c7b57600080fd5b50565b600081359050610c8d81610c67565b92915050565b600080fd5b6000601f19601f8301169050919050565b7f4e487b7100000000000000000000000000000000000000000000000000000000600052604160045260246000fd5b610ce182610c98565b810181811067ffffffffffffffff82111715610d0057610cff610ca9565b5b80604052505050565b6000610d13610c53565b9050610d1f8282610cd8565b919050565b600067ffffffffffffffff821115610d3f57610d3e610ca9565b5b602082029050602081019050919050565b600080fd5b6000610d68610d6384610d24565b610d09565b90508083825260208201905060208402830185811115610d8b57610d8a610d50565b5b835b81811015610db45780610da08882610c7e565b845260208401935050602081019050610d8d565b5050509392505050565b600082601f830112610dd357610dd2610c93565b5b8135610de3848260208601610d55565b91505092915050565b60008060408385031215610e0357610e02610c5d565b5b6000610e1185828601610c7e565b925050602083013567ffffffffffffffff811115610e3257610e31610c62565b5b610e3e85828601610dbe565b9150509250929050565b600080fd5b60008083601f840112610e6357610e62610c93565b5b8235905067ffffffffffffffff811115610e8057610e7f610e48565b5b602083019150836001820283011115610e9c57610e9b610d50565b5b9250929050565b60008060208385031215610eba57610eb9610c5d565b5b600083013567ffffffffffffffff811115610ed857610ed7610c62565b5b610ee485828601610e4d565b92509250509250929050565b600073ffffffffffffffffffffffffffffffffffffffff82169050919050565b6000610f1b82610ef0565b9050919050565b610f2b81610f10565b82525050565b6000602082019050610f466000830184610f22565b92915050565b600080fd5b600067ffffffffffffffff821115610f6c57610f6b610ca9565b5b610f7582610c98565b9050602081019050919050565b82818337600083830152505050565b6000610fa4610f9f84610f51565b610d09565b905082815260208101848484011115610fc057610fbf610f4c565b5b610fcb848285610f82565b509392505050565b600082601f830112610fe857610fe7610c93565b5b8135610ff8848260208601610f91565b91505092915050565b60006020828403121561101757611016610c5d565b5b600082013567ffffffffffffffff81111561103557611034610c62565b5b61104184828501610fd3565b91505092915050565b60008115159050919050565b61105f8161104a565b82525050565b600081519050919050565b600082825260208201905092915050565b60005b8381101561109f578082015181840152602081019050611084565b60008484015250505050565b60006110b682611065565b6110c08185611070565b93506110d0818560208601611081565b6110d981610c98565b840191505092915050565b60006040820190506110f96000830185611056565b818103602083015261110b81846110ab565b90509392505050565b60006020828403121561112a57611129610c5d565b5b600061113884828501610c7e565b91505092915050565b60006040820190506111566000830185610f22565b6111636020830184610f22565b9392505050565b600060608201905061117f6000830186610b97565b61118c6020830185610b97565b6111996040830184610b97565b949350505050565b6000819050919050565b6111b4816111a1565b82525050565b600067ffffffffffffffff82169050919050565b6111d7816111ba565b82525050565b600061ffff82169050919050565b6111f4816111dd565b82525050565b600063ffffffff82169050919050565b611213816111fa565b82525050565b600060a08201905061122e60008301886111ab565b61123b60208301876111ce565b61124860408301866111eb565b611255606083018561120a565b611262608083018461120a565b9695505050505050565b60008151905061127b81610c67565b92915050565b60006020828403121561129757611296610c5d565b5b60006112a58482850161126c565b91505092915050565b7f4e487b7100000000000000000000000000000000000000000000000000000000600052601160045260246000fd5b60006112e882610b8d565b91506112f383610b8d565b925082820390508181111561130b5761130a6112ae565b5b92915050565b7f4e487b7100000000000000000000000000000000000000000000000000000000600052603260045260246000fd5b7f4e487b7100000000000000000000000000000000000000000000000000000000600052601260045260246000fd5b600061137a82610b8d565b915061138583610b8d565b92508261139557611394611340565b5b828206905092915050565b600081905092915050565b50565b60006113bb6000836113a0565b91506113c6826113ab565b600082019050919050565b60006113dc826113ae565b915081905091905056fea26469706673582212200f2bd0b2fb1c72d99ec308a177aa9c10eff6986aaf263b328a9e9e9a8c2067d064736f6c63430008120033",
  "linkReferences": {},
  "deployedLinkReferences": {}
}